:020000040001F9
:10B0000068300020F5B001000FB1010011B101005E
:10B010000000000000000000000000000000000030
:10B0200000000000000000000000000013B101005B
:10B03000000000000000000015B1010017B1010080
:10B0400019B1010019B10100A5B9010019B1010040
:10B0500019B1010000000000D9B6010019B10100CA
:10B0600019B1010019B1010019B1010019B10100B4
:10B0700019B1010019B1010019B1010019B10100A4
:10B0800019B1010071B8010019B1010019B1010035
:10B0900091B8010019B1010099B8010019B101007E
:10B0A00019B1010019B1010000000000000000000A
:10B0B0000000000000000000000000000000000090
:10B0C0000348854600F062FA0048004795D5010024
:10B0D00068300020401E00BF00BF00BF00BF00BF9F
:10B0E00000BF00BF00BF00BF00BF00BF00BFF1D165
:10B0F000704700000321094802680A4302600848BB
:10B1000002680A4302600748804707480047FEE795
:10B11000FEE7FEE7FEE7FEE7FEE70000240500404D
:10B1200054050040B9B80100C1B0010030B50B466C
:10B13000014600202022012409E00D46D5409D4211
:10B1400005D31D469540491B254695404019154697
:10B15000521E002DF1DC30BD03460B439B0703D08C
:10B1600009E008C9121F08C0042AFAD203E00B78CC
:10B170000370401C491C521EF9D27047D2B201E044
:10B180000270401C491EFBD270470022F6E710B542
:10B1900013460A4604461946FFF7F0FF204610BD45
:10B1A000F0B51FB40646002082B005464024019148
:10B1B00000901BE0019922460F46304600F008FA45
:10B1C000049A059B801A994110D3104619462246CD
:10B1D00000F0EEF9361A8F41019722460120002136
:10B1E000009F00F0E5F938184D4100902046641E9C
:10B1F0000028DFDC019B00982946324607B0F0BDED
:10B20000F0B507460846584087B0C00F0490480084
:10B210000E46590040084908BC1A884105D23846F4
:10B2200031461E4617460B4602465800400810435A
:10B230004CD0300D039040055900400D490D05904C
:10B24000401A0290402872DA18030121000B090508
:10B250000843019004980092002805D001995242B9
:10B260000020884100920190029840210A1A019919
:10B27000009800F09DF905460C466B4607CB00F0A0
:10B28000B8F9C0197141039A0E0D0023D717564023
:10B290001A467A40164344D0049A002A2DD0029AC6
:10B2A000012A039A15DC1205C01A914101263605C0
:10B2B000001C7141D20F059ED207009301920296A5
:10B2C0002A46234600F0B5F907B0F0BD38463146AE
:10B2D000FAE71605224A0F46B218C01AB7410121F3
:10B2E0000905001C4F4100187F411146181879418B
:10B2F000E20F10436D19644113E0E2076D08154336
:10B300006408C2071443039A01261205C01A91412A
:10B310003605001C7141CE07400830434908C0186B
:10B3200051412A46234600F077F9CDE7FFE704981C
:10B3300001224000C117121A00238B4104983146A4
:10B34000C417381AA141EEE730B40124E407634082
:10B3500030BC55E730B40124E407614030BC4FE70E
:10B360000000E0FFF0B51FB488B00B9909980024E5
:10B3700048400999C00F490049080991C0070B9935
:10B380000090490049080B9109990898A64608437E
:10B390001CD00B990A98084318D009980124400042
:10B3A000420D4800410D099824050003000B20437D
:10B3B00009900B980003000B20430B9050181C4978
:10B3C0004018002201901446104605E00020014676
:10B3D0000DB0F0BD032801DA034600E003239C46CC
:10B3E000C11A0AAE0AE05F0008ADED5B4F00F75BE3
:10B3F0007D430027AA187C41491C5B1E6145F2DD94
:10B40000410004AB5A522104120C0A43240C401C84
:10B410000828DFDB019802900099704601910090A6
:10B42000059B049A0799069800F003F9D0E70000FD
:10B430000DFCFFFFF0B50C465C4085B0E40FE4075F
:10B4400003944C00002664085900944649080246BB
:10B450000296224321D062460A431ED06200570D55
:10B460004A000E032303550D012402462C492405EE
:10B47000781B1B0B360B4018234326436146009074
:10B480001C46501AB44103D30098401C009002E0BF
:10B49000921800985B41002803DA0020014605B0AD
:10B4A000F0BD0020012109050746864611E06446EB
:10B4B0001D46141BB54106D36546521BB341744665
:10B4C00007430C43A646CD07400849082843921875
:10B4D0005B4105460D43EAD11046184313D0604640
:10B4E000194650407140084306D06046101AB341D7
:10B4F00006D20122002306E000220123DB0702E03E
:10B500000122D2435310009874460105381C614152
:10B51000029C039D0019694100F07EF8BFE700001E
:10B52000FD0300004A0009030123090B1B05194311
:10B530000A4B10B5520D9A4202DA0020014610BDA6
:10B54000064B34339A4203DC9A1A00F041F810BDDE
:10B55000034BD21800F02CF810BD0000FF030000D0
:10B56000CDFBFFFF10B5002904DB0124E4074042B6
:10B570008C412146002B04DB1C460123DB07524291
:10B58000A341994200D1904210BD0000064C012514
:10B59000064E05E0E36807CC2B430C3C984710347B
:10B5A000B442F7D3FFF790FDFCE601001CE7010071
:10B5B00010B5202A04DB0146203A9140002010BD3E
:10B5C000914020239C1A0346E3401943904010BD4C
:10B5D00010B5202A04DB0846203AD040002110BDD7
:10B5E0000B46D340D0402024A21A9140084319466C
:10B5F00010BD10B5202A06DBCB170846203A1041B3
:10B60000C1170B4306E00B461341D0402024A21A79
:10B6100091400843194610BD10B5002B08DA0024EC
:10B62000401C614192185B411A4301D1400840001F
:10B6300010BDF0B51FB482B005460C0003D008461B
:10B6400000F0C4F902E000F0C1F920300246009099
:10B6500021462846FFF7ACFF049B059A04460F4697
:10B6600018431143084314D0184610431BD00098C8
:10B6700040210A1A18460599FFF7AAFF05460E460B
:10B68000009A05990498FFF793FF084305D001201D
:10B6900004E02046394607B0F0BD0020C11705433D
:10B6A0000E432C43374300990E986305401A7905E1
:10B6B000E40A00220C43FD0A0A3002D500200146AC
:10B6C000E9E70105101969410C9C0D9D00196941BC
:10B6D000FFF7A2FFDFE70000F0B50025FF248BB0E5
:10B6E000013401262F460195204602F055FA002824
:10B6F00008D047484068304204D04648002120180E
:10B7000035430160241D76007F1CA4B2042FEBD3C7
:10B71000FF207D3002F040FA002807D03E4800218B
:10B720000160400705433D48006901903C4C2807F3
:10B7300012D0012700262F420AD03A48B200111831
:10B7400008690969C004C00E8903A258890F90478F
:10B750007F00761C042EEED3002D57DA00200590D2
:10B76000401E4DE0A119403108788506AD0E42B269
:10B77000521C39D00121A940089A0091114233D0BE
:10B7800080090390284601F087FC8000205804902F
:10B79000002802D10398032826D103980099032892
:10B7A00002D10598084305901F4AA8008018006838
:10B7B000019A8003800F114202D0022802D013E0C8
:10B7C000032811D10399032907D102281CD0022193
:10B7D000284602F0D1F97F1CFFB20498002803D05C
:10B7E000049A284603999047761C042EBAD3002F5A
:10B7F0000CD00A4800690199884207D00190059849
:10B8000000273E460890ADE70321E1E70BB0F0BD0D
:10B8100000630040006000407C6100400005005073
:10B82000D426002000650040000700508307FF2257
:10B83000DB0E9A408907090E994000280BDA0007B1
:10B84000000F0838830808489B001818C369934301
:10B850000B43C3617047830804489B001B1818689A
:10B86000904308431860704700ED00E000E400E0FA
:10B8700010B506490020086048608860C860034928
:10B8800040390860486002F059FC10BD4011014089
:10B8900010B502F0E9FB10BD10B50648406800285D
:10B8A00005D08047002801D000F036FE10BD01F021
:10B8B00011FD10BD1421002010B52E490124886807
:10B8C000401C0FD001F050FD002805D02B492A481C
:10B8D0004860C8132A4988612A48018CC9B20129E5
:10B8E00017D022E0284A546028480368002BFCD077
:10B8F000FF23DB438B600021516001680029FCD0ED
:10B90000BFF34F8F23492248C860BFF34F8F00BF5A
:10B91000FDE7828C120708D1028D1206120F042A4D
:10B9200003D1828D1206120F0AD0012920D1818CF9
:10B9300009071DD1018D0906090F0A2903D006E068
:10B9400015498C60F6E7828D1206120F05D00D297D
:10B950000ED1808D0006000F0AD110480168012920
:10B9600004D00F49016001680129FCD1C021416167
:10B9700010BD000000100010DFFF07C000050040F0
:10B98000006C0040C00F00F000E5014000E4014001
:10B990000400FA0500ED00E00006004000EC06405F
:10B9A0007593000010B502F0F7FC10BD0FB410B590
:10B9B00003A9044B044A029800F0DAF810BC08BC52
:10B9C00004B01847AFD20100102100202021020C42
:10B9D00001D010211046020A01D010460839020990
:10B9E00001D01046091F820801D01046891E420866
:10B9F00001D0881E7047081A704702E008C8121F5D
:10BA000008C1002AFAD170477047002001E001C147
:10BA1000121F002AFBD17047F0B51FB484B00798FD
:10BA20000699020D014314D04A484B491018484367
:10BA300005140F9801280E981CD0281A401C0024C9
:10BA4000464E4749009401910290002814DA47427B
:10BA500027E00F98012443A3012808D0002104986F
:10BA60000F9A84600360C260416009B0F0BD0E9817
:10BA7000C143F4E74042E2E7074612E0F80707D087
:10BA80002246334601990098FFF76CFC0191009023
:10BA90002246334610461946FFF764FC04460E461C
:10BAA0007F10002FEAD10298019B0028009A079985
:10BAB000069802DAFFF756FC01E0FFF7BBFC0446EC
:10BAC0000E460022284BFFF74DFD03D80020C0434F
:10BAD000014607E00022254B20463146FFF790FB48
:10BAE000FFF720FD102409E0002C0ADB0A220023C6
:10BAF000FFF756FB059B30321A55641E02460A4377
:10BB0000F2D11122641C059B121B1C190F9B012BE7
:10BB100003D0012308430ED10AE0084304D01120CA
:10BB20000E9000200F9084E70E98151A6D1E0BE002
:10BB30000E98824202DD00236D1C03E0824201DA8E
:10BB400000236D1E002BEED004980F998260C16017
:10BB500030C08AE701FCFFFF104D000000002440C8
:10BB60000000F03F300000000000F0430000E03F24
:10BB7000FFB597B00646002518E2252877D10024A6
:10BB80002746FD49049400E00443761C32780120E6
:10BB9000203A90400842F7D130782A280ED002226D
:10BBA000307801463039092916D804990A235943B7
:10BBB000303940181443761C0490F1E7189802C8F5
:10BBC00004911890002904DA0120400304434842FC
:10BBD000049002200443761C30782E2814D10420CF
:10BBE00004437078761C2A2809D11898761C80C8DE
:10BBF000189009E00A214F43303FC719761C30786E
:10BC0000014630390929F5D930786C2810D006DC86
:10BC10004C281AD068280ED06A2817D104E074285E
:10BC200013D07A2812D110E00120400504430CE023
:10BC30000121090501E0032109050C4371788142C6
:10BC400003D1012000052418761C761C3078119051
:10BC500066280BD013DC58287DD009DC00287BD067
:10BC60004528F6D04628F4D047281AD1A5E118E097
:10BC7000632835D0642870D0652812D19DE17028E2
:10BC80006CD008DC6728F1D069287BD06E280DD0F5
:10BC90006F2806D1BAE073282ED0752871D0782885
:10BCA00059D01A9A199990476D1C7EE16002400F95
:10BCB000022809D003280DD00428189801680DD057
:10BCC0000D60001D189070E11898EA1701680D606A
:10BCD0004A60F6E7189801680D80F2E70D70F0E70A
:10BCE00018986A4601781172001D18900020507251
:10BCF00002A80090012005E0189802C818900020C2
:10BD00000091C04361070DD5002101E00199491C54
:10BD10000191B94212DA8142F8DB009A515C0029A4
:10BD2000F4D10BE0002101E00199491C019181420D
:10BD3000FADB019A0099895C0029F5D101990498F0
:10BD40001A9B471A21463846199A00F097FA01992A
:10BD5000401945180BE04FE02CE113E04EE000984D
:10BD600000990078491C00911A9A199990470198F6
:10BD7000401E0190401CF2D1214638461A9B199A68
:10BD800010E137E00A200021009001916002410F8C
:10BD9000022907D0189A01CA1892C217944603299B
:10BDA00008D00AE01898C01DC108C90005C918913B
:10BDB000944607E000B2C2179446042902D140B26B
:10BDC000C1178C4600226146944506DA0A460021D6
:10BDD000404291418C462D2102E0210504D52B21C2
:10BDE0006A461173012103E0E10701D02021F7E742
:10BDF000029155E00A200AE0102008E0102000908F
:10BE00000021042004430191082703E008200021B9
:10BE1000019100906002410F022907D0189A01CACF
:10BE2000189200229446032908D008E01898C01DF3
:10BE3000C108C90005C91891944603E080B20429DD
:10BE400000D1C0B200210291210729D51199702992
:10BE500006D0009A1021019B4A401A4305D00EE0FB
:10BE600040216A461173012108E06146014306D072
:10BE700030216A4611731199517302210291009A7F
:10BE80000821019B4A401A430AD16146014301D16E
:10BE9000610705D530216A46117301217F1E029189
:10BEA0001199582904D035A10E910DA90D910DE0DD
:10BEB00037A1F9E76146019B009AFFF771F90E9BE4
:10BEC0008C469B5C0D9A521E0D9213706146014385
:10BED000F0D10D9805A9081A20300190600703D50C
:10BEE00001200004844300E001270198874201DD1E
:10BEF000381A00E0002001990090411802980918B2
:10BF00000498401A0490E00306D421461A9B199A1B
:10BF1000049800F0B3F94519002706E003A81A9A1F
:10BF2000C05D199990476D1C7F1C02988742F5DB14
:10BF3000E0030CD521461A9B199A049800F09EF94B
:10BF4000451904E01A9A3020199990476D1C009900
:10BF5000481E00900029F5DC08E00D980D99007846
:10BF6000491C0D911A9A199990476D1C0199481E08
:10BF700001900029F1DC63E10928010030313233FE
:10BF80003435363738396162636465660000000015
:10BF900030313233343536373839414243444546FF
:10BFA0000000000000F05AF94519761C307800288E
:10BFB00000D0E2E528461BB0F0BD600700D406279C
:10BFC0001898C01DC108C90048680A680831C30F25
:10BFD000DB071891190001D09CA108E0210501D5CB
:10BFE0009BA104E0E10701D09AA100E09AA14300DF
:10BFF00011985B08109165280CD006DC452809D003
:10C0000046281DD0472841D141E0662818D067282E
:10C010003CD13CE00021112F01DB112000E0781C15
:10C020000191009008A911A8FFF7F6FC139905915A
:10C030000021119A15927F1C12980197009150E0EF
:10C040000120C00703900120019008A9009711A8C2
:10C05000FFF7E2FC139A149905920022119B0092BB
:10C0600012981593059A0192002901D0104602E01A
:10C07000791C40180190381A01D5019804E040421B
:10C08000401E0090781C0190C01B029043E0012FDD
:10C0900000DA01270021112F01DD112000E03846D0
:10C0A0000191009008A911A8FFF7B6FC139905911A
:10C0B000119A0021129815920091019721070CD432
:10C0C0000599B94201DB019900E00191012904DDE4
:10C0D000159A491E515C302906D0B84201DA011D7B
:10C0E00005DA0121029115E00199491EEDE70028CA
:10C0F00005DC0099411800910199091A03E0019AA1
:10C10000411C914200DD01910099401A401C0290AF
:10C110000120C0070390200706D4029901988142AC
:10C1200002DB0020C043029000206946C87707AFB9
:10C13000012103980337C907884224D002201190B7
:10C140002B201290039800280CDA404203902D20F7
:10C15000129007E00A210398FEF7E8FF30317F1EB6
:10C16000039039701199481E11900029F2DC039850
:10C170000028EFD1791E12980870307820210840ED
:10C180004530BF1E387006A8C01BC01D0390109814
:10C190000078002800D00120019941180298C017AA
:10C1A0000918039809180498401A401E0490E003E7
:10C1B00006D421461A9B199A049800F05FF8451995
:10C1C00010980078002803D01A9A199990476D1C8E
:10C1D000E00324D521461A9B199A049800F04EF8E2
:10C1E00045191CE00098002807DB00990598884253
:10C1F00003DD1598405C199901E0199930201A9ACD
:10C20000904700986D1C401C00900298401E0290C0
:10C21000002804D11A9A2E20199990476D1C019973
:10C22000481E01900029DDDC05E038781A9A7F1C51
:10C23000199990476D1C0399481E03900029F4DC5E
:10C2400021461A9B199A0498ACE600002D000000C4
:10C250002B0000002000000000000000F8B504469C
:10C2600000251E461746880404D405E039462020E0
:10C27000B0476D1C641EF9D52846F8BDFFB50446CD
:10C28000002581B01E46C80301D5302700E02027D5
:10C29000880404D505E038460399B0476D1C641E38
:10C2A000F9D5284605B0F0BDF7B584B0002516884D
:10C2B00007461580406B1446002813D00378059874
:10C2C000032E51D30221017021881122491C89B209
:10C2D000218042542188491C89B2218043542088FE
:10C2E000401C2080386B00281DD005462088059909
:10C2F00002461232B24237D811220A542088102244
:10C30000401C80B220800A542088401C20800F20CE
:10C310002A5C2388401ECA54228840B2521C2280C4
:10C320000028F5DA0025384620300290807B00286E
:10C3300006D033462246059901F03AF8050014D19B
:10C340000298407B002806D032462146059800F02E
:10C3500005FD050009D1B878002823D00598864648
:10C360002088001DB04202D90C2007B0F0BD6846FD
:10C3700079DF0028F9D121880320724650542088A3
:10C380001921401C80B22080115420887146401C25
:10C3900080B2208041186846008802F091F8218818
:10C3A00040182080F878002817D0218803230A46F7
:10C3B000FB56C91C0598B142D6D802218154218868
:10C3C0000122491C89B2218042542188491C89B22A
:10C3D000218043542088401C20807868002817D092
:10C3E00021880023C3560A46C91C0598B142BBD810
:10C3F0000221815421880A22491C89B22180425499
:10C400002188491C89B2218043542088401C208007
:10C41000388900280AD00094384601960622022165
:10C420000830059B02F0C1F805009ED1388A00282B
:10C430000AD0009438460196072203211030059B4C
:10C4400002F0B3F8050090D1388B00280AD0009490
:10C4500038460196152214211830059B02F0A5F8E4
:10C46000050082D1386A002806D033462246059955
:10C4700000F06EFE0500D8D1786A002806D0334659
:10C480002246059901F066F90500CED10298007B9D
:10C49000002807D0334622463846059901F010FDA2
:10C4A0000500C2D13878002807D0334622463846E6
:10C4B000059901F083F90500B7D1284655E710B575
:10C4C00001220221002000F0DFFD002801D0072812
:10C4D00012D107220221012000F0D6FD002801D050
:10C4E000072809D100210A22084600F0CDFD0028C6
:10C4F00001D0072800D1002010BD0000BFF34F8FEE
:10C5000004490348C860BFF34F8F00BFFDE7000038
:10C510000400FA0500ED00E00EB500210290009144
:10C520006A4601910148FFF7E9FF0EBD0140000096
:10C5300010B58268C368934203D000F0A5FE0020C6
:10C5400010BD052010BD002906D0002A02D0531EC0
:10C55000134203D0092070470E207047016083808A
:10C5600000218160C1600846704710B58268C368C9
:10C570009A1A83889A4203D800F090FE002010BDDA
:10C58000042010BD094B9B68002B07D0002A07D060
:10C59000002805D00068037C002B03D008207047DA
:10C5A000072070474174426100207047F02000204E
:10C5B000FFB59007002581B014460E46002832D101
:10C5C0001B4F002C31D001F083FB049878610320CD
:10C5D000387033461821224600204B43BC60183483
:10C5E000C10089180D704D708E704C601C19401C74
:10C5F0000328F5DBFD607D7001240E48BD70240525
:10C60000046003211420FFF711F90B4804600B4C60
:10C610000198A06003211120FFF708F960683861D4
:10C62000002005B0F0BD0720FBE7BD60FBE7000080
:10C63000F020002080E200E000E100E00015014071
:10C64000FEB50D461B4917468968044600292AD0C5
:10C65000002C28D0052D01D20720FEBD60690028DE
:10C6600021D0607C012820D0002601F061FFC000AD
:10C670001049019089684018694601F083FF00283D
:10C6800015D0012101700C49446049680830E2C0AE
:10C69000084901988968411868460078487001F097
:10C6A00025FD0020FEBD0820FEBD2E46DDE704204E
:10C6B000FEBD0000F020002000150140F8B5134D2C
:10C6C0000446A96800291CD0002C1AD060690028F3
:10C6D00017D00026267401F02BFFC700A868694612
:10C6E000381801F04FFF00280DD00221017044607E
:10C6F000A868391868460078487001F0F7FC3046A1
:10C70000F8BD0820F8BD0420F8BD0000F02000208E
:10C7100010B5044609488168C2688088511A814270
:10C7200007D10121064801F02DF9002801D005208C
:10C7300010BD21460148FFF7FBFE10BDB4260020C6
:10C74000C520002070B50446224888B01E460D0062
:10C7500042601CD0A888296882B21F48FFF7F3FE08
:10C76000002815D1A889A96882B21B481030FFF7AC
:10C77000EAFE00280CD1202218496846FEF7ECFC9E
:10C78000A06806902079002804D0012103E007204A
:10C7900008B070BD002168460175067760790028F1
:10C7A00000D00E2069464875E0780290A07803908A
:10C7B00020780190607800900949684601F07EF881
:10C7C0000028E5D101F004F902480121401C01F0E4
:10C7D000D9F8DDE7C4200020B4260020BCE6010023
:10C7E000E9E2010010B501460A48FFF7BEFE040069
:10C7F0000ED101F093F900280AD107490548FFF747
:10C8000097FE002804D10121034801F03BF90446BA
:10C81000204610BDC4260020C4200020F0B50C46E0
:10C8200093B01F216A4611800726002791800028B7
:10C8300009D0C17849070DD502A9FFF735FD0028B9
:10C8400009D102AD01E000251780002C0ED0E07860
:10C85000002802D0304613B0F0BD01AA0AA9204634
:10C86000FFF722FD0028F6D10AAA02E0684600225E
:10C87000878068468088C3B268460088C1B228466F
:10C8800072DFE8E770B50D4604991646040042D001
:10C89000002E40D0424800224271C3600161242230
:10C8A00031464048FEF758FC00F0BCF83D493431B1
:10C8B0000846103801602031816038215C38FEF76D
:10C8C00064FC3848217838380170A1788170E178AB
:10C8D000C170617841706269216942610161E268F9
:10C8E000A168C26081600146E369A269CB618A6187
:10C8F000616A002919D00146AC310246B832416262
:10C900008A60636A1B880B80616A436A89889980A0
:10C910000021436A06E00E2070BD666AB668765C48
:10C920005654491C9E888E42F7D8A16A00291CD013
:10C930001C4AAC3211460C398A608162A36A9B881A
:10C940008B80A16A836A098819800021836A04E0C8
:10C95000A66AB668765C5654491C9E888E42F7D803
:10C960002C210A5D0F4918390A73216A002909D060
:10C970000B4914310162226A52884A80216A026A94
:10C98000098811806168002904D00549891D41602A
:10C9900061684160034829463838FFF73FFF70BDA2
:10C9A00090200020AC25002010B502881C4C102AD5
:10C9B00017D00021112A1AD01B2A11D1007A002881
:10C9C0000ED1607901281ED0022822D0032822D05F
:10C9D000042805D12171E2680846002A00D090475A
:10C9E00010BD817D0129FBD18088208110BD61703F
:10C9F000808821898842F9D1012005E02169002938
:10CA0000F4D0884710BD022000F040F80028F5D18E
:10CA100010BD0320F8E7032020710420F4E7000094
:10CA20009020002010B507210148FEF7AEFB10BD95
:10CA3000A820002010B51348007801281FD1124CFF
:10CA4000607800281BD16079002802D074DF0028AC
:10CA500016D101200B49607006203839C87009488A
:10CA600000213838FFF7DAFE002809D1607900F09C
:10CA70000DF8002803D02169002900D08847002044
:10CA800010BD0000AC25002090200020F0B5784CAF
:10CA900087B06071002606A8069601F005F9012707
:10CAA000082802D0002808D104E006A800F006FCFF
:10CAB000002804D10698002801D02770D4E0FFF7A1
:10CAC000B1FF6C4D6878002802D06079012807D04A
:10CAD000A87800280CD06079012801D0022824D140
:10CAE000E168002903D0E7700820884700E0E6707D
:10CAF0006079012808D16878002809D05C4819308D
:10CB000001F0C6F8002803D06079022802D00CE0BA
:10CB100002206071A878002805D05548193001F02E
:10CB2000B7F8002801D103206071287B002804D1C8
:10CB30006079032801D104206071287E002804D187
:10CB40006079042801D166712671E16800290AD054
:10CB50006079032801D0042805D12878002802D064
:10CB60006078002817D0A67018216846FEF70DFBE4
:10CB700068460670019606720396607901280ED009
:10CB8000022815D03B4E243637465C3F03281BD085
:10CB900004285DD13AE0A77007208847E4E73448CD
:10CBA000183001906846077046820682277152E06D
:10CBB0002F48183001906846077029894182A9885A
:10CBC00001820220207146E0A88A69464882288AAC
:10CBD00008822848243001F057FD002805D0287825
:10CBE000002802D06078002801D003202FE0022026
:10CBF0006946087204200396F8701E4800213838F0
:10CC0000FFF70CFE002830D1052020E0A88B6946F4
:10CC10000882288C48821748243001F035FD00280E
:10CC200005D02878002802D06078002801D00420A0
:10CC30000DE002206946087204200396F8700D4842
:10CC400000213838FFF7EAFD00280ED106202071B8
:10CC50006079002803D0684673DF002805D1E168B9
:10CC6000002901D020798847002007B0F0BD0000DE
:10CC700090200020AC25002070B5054601461C22FE
:10CC80000E48FEF769FA0E4C002626702968002926
:10CC900006D00822201DFEF75FFA201D7ADF02E091
:10CCA0000748001D7BDF002807D1401E60806670AA
:10CCB000044A00210448FFF765FC70BD9826002057
:10CCC000B0200020CDE40100A8E60100F8B5214C19
:10CCD000028800271E4DE689102A15D01E49112A08
:10CCE00021D0122A2DD0502A1CD1C288801DB242D8
:10CCF00018D14289022A15D1427B037B10021843C6
:10CD0000C007C00F0CD112E081886980014610482D
:10CD1000082218310C30FEF71FFA6F70002E01D177
:10CD200000F05EFAF8BD0020C04368806F700868AC
:10CD3000FFF7C4FC0028F5D0A1690029F2D088478C
:10CD4000F8BD0822811802480C30FEF705FAE7E723
:10CD5000B020002098260020A8E601007CB50546FA
:10CD600008880C460930904201D90C207CBD6846E9
:10CD700071DF0028FAD121880820685420881B21FF
:10CD8000401C80B220802954208800A9401C80B219
:10CD90002080401906220131FEF7DEF9208869461D
:10CDA000801D80B220800978002900D001212954FB
:10CDB0002088401C208000207CBD000010B5044667
:10CDC000FFF784FF2146064800F040F8204600F0B7
:10CDD0001DFF2046FFF7E8FD204600F0EFF810BDEC
:10CDE0005825002030B5184B0D4604000FCB85B0F8
:10CDF00003936B4607C324D0002D22D00020C043EC
:10CE0000A0822868A0610020A0752146684663DFE3
:10CE1000002814D121786846817401210182A21C66
:10CE200004A90120A0DF002809D12946204600F0EE
:10CE30008DFF002803D12946204601F0D5F905B021
:10CE400030BD0E20FBE70000ACE6010000281ED03C
:10CE500000291CD00A88102A14D0112A14D0502A74
:10CE600015D1CA88038A891D9A4202D14B89022BA7
:10CE70000ED083889A420AD18369002B07D04A8951
:10CE80000C311847898801E00021C943818270472D
:10CE90004A7B0B7B11021943C907C90F00D001213E
:10CEA0008175704707B584B000280DD0828A114B78
:10CEB0009A420BD0827D002A08D06A46128B142A2F
:10CEC00006D9072007B000BD0E20FBE70820F9E7D0
:10CED0000022009201920292039282896B461A808C
:10CEE000039106A9029101219970808A6946A6DF03
:10CEF000E8E70000FFFF000000B5174887B00068B2
:10CF0000059000234822154905A801F061F8002882
:10CF100001D0FFF701FB6A460121002001F040F833
:10CF2000002801D0FFF7F8FA0D4800F07BFF002839
:10CF300001D0FFF7F1FA684601F028F8002801D087
:10CF4000FFF7EAFA074801F017F8002801D0FFF7C9
:10CF5000E3FA07B000BD000098E60100342100208C
:10CF6000E81F0020BDCD01007CB5134E00250C4606
:10CF70003060002918D06946002000F065F80028CC
:10CF800019D101A9012000F05FF8002813D16846EB
:10CF900001790020002901D0022004E069460978C7
:10CFA000002900D00B2020707068002802D1FFF704
:10CFB00086FA054628467CBD8820002010B51C4C0A
:10CFC0000188606810290DD011290AD1401E6060C7
:10CFD00007D1FFF774FA002803D02168002900D098
:10CFE000884710BD00281ED100210122084600F00C
:10CFF0004BF8002801D0072811D107220221012077
:10D0000000F042F8002801D0072808D104220221AC
:10D01000002000F039F8002805D0072803D0216847
:10D02000002900D088476068401C606010BD000087
:10D030008820002010B5032000F02CF8002801D033
:10D04000062800D1002010BD0020087070470000A5
:10D0500010B5042806D007280ED00A2801D100F008
:10D0600076FF10BD07481321408876DF06E00028D0
:10D07000F7D0FFF751FA10BDFFF7DCFC0828F6D116
:10D0800010BD00008020002007207047002070475E
:10D0900000207047062070470249091820200856D2
:10D0A00070470000D4260020F8B52348C168002945
:10D0B0003ED00E6821494C680769C078E11B0D021B
:10D0C0002D0AED1C002814D101201D4A00045060D7
:10D0D0001B4A403A50601B49400008601A490860EA
:10D0E0001A49012008602F20FDF7F4FF12490120A2
:10D0F000C870B54200D23546E81900020F4B000A4D
:10D10000403318600D4A5168001B091B0902090AC7
:10D110000002000AC91C814209D9506818602F20FA
:10D12000FDF7D8FF01200749400480390860F8BDA9
:10D1300000F0CEFDF8BD0000F020002000150140F9
:10D140004013014080E200E000E100E000100140F7
:10D15000F8B50646108814468446801D0D46984250
:10D1600001D90C20F8BD32880720062AFAD31927E6
:10D17000FF01184BBA4201D99A42F3D171880629AE
:10D18000F0D3B94201D99942ECD19A4203D09942E5
:10D1900001D08A42E6D80521604629542088122110
:10D1A000401C80B2208029542088401C80B22080FE
:10D1B0004119308801F084F92188401880B220801C
:10D1C0004119708801F07CF92188401820800020E6
:10D1D000F8BD0000FFFF000010B5FFF79DF910BD7E
:10D1E000F8B5164800F0B2F8144D00260C3D144C6A
:10D1F000002807D0616900291CD001206A46107000
:10D20000684616E02878002805D06169002911D009
:10D21000684606700DE0687800280DD0A1680948BE
:10D2200000220068FFF70CFA002803D0A16900294A
:10D2300000D088472E70F8BD6168F0E7BC20002060
:10D2400098260020A8E6010010B50E4900234A7870
:10D250008C78A24212D0521CD2B24A70022A00D15B
:10D260004B704A78074B920018339A58026008694D
:10D2700010180002000A0861012010BD03600020A0
:10D2800010BD0000F0200020826883881A400368E7
:10D290009A5C0A708168491C81607047C268838803
:10D2A0001A4003689954C168491CC160704710B5A1
:10D2B0000446C0B2FFF796FA204610BD002804D0FD
:10D2C0000349496D0160002070470320704700004A
:10D2D00010280020F8B51C4C2078002833D0206995
:10D2E000002807D00026E068002805D00025002E81
:10D2F00004D011E00126F6E70125F8E7684652DF81
:10D30000052804D0002804D0FFF706F904E0012620
:10D3100002E0216900988847002D10D16088694695
:10D320000880A06861DF052804D0002804D0FFF73A
:10D33000F3F804E0012502E0E168A0688847002EC8
:10D34000DCD0002DD3D0F8BD142100204188054841
:10D350000288914204D34088814201D8012070475D
:10D3600000207047B42000201048018CC9B2012968
:10D3700017D1818C090714D1018D09060A0F03D139
:10D38000828D1206120F0ED0090F012903D1828D52
:10D390001206120F07D0032903D1808D0006000F5B
:10D3A00001D000207047012070470000C00F00F03E
:10D3B00030B51588EC1C9C4201D90C2030BD0224EC
:10D3C0004C5513881C255B1C9BB21380CD541388CD
:10D3D0005B1C9BB21380012807D0022807D00328CA
:10D3E00007D0042807D0072030BD002004E001202A
:10D3F00002E0CC5401E00320C8541088401C108087
:10D40000002030BDF8B52C49C8680A690C780F793E
:10D4100089688646944600913EE00099E2005518DE
:10D420002A7836E0182353436968521CC918AB7830
:10D43000D2B2934200D100220B78022B02D0032BF0
:10D4400027D123E04E680346014603E0B14204D0F1
:10D450000B46C96900291CD0F8E7002919D08B4276
:10D4600008D1C069002805D1144F0126BE600026EE
:10D47000B44601270E68C969D961002909D00B6833
:10D480009B190B6005E00174C06900E000210028D1
:10D49000F9D169789142C5D12146641EE4B20029D0
:10D4A000BBD1054962460A61C8600F71704501D061
:10D4B0000120F8BD0020F8BDF02000200010014040
:10D4C000F8B5044631480026C168009107784EE05F
:10D4D0002E48F90080680D1843E0002C02D0204649
:10D4E000E4691FE02878182141436A68401CC0B2F3
:10D4F00051182870AA78904200D12E700A78486896
:10D50000012A30D1027C002A2DD18A684260CA6883
:10D5100082600A69C260496981611C4909790029F0
:10D5200000D04660194943680A699C46991A090265
:10D53000174B090A994202D28268891807E06146AE
:10D54000511A09028268090A8A4202D9511A0160F5
:10D5500000E006604660012186600174C66100F04B
:10D56000CDFD002CB9D1287869788842BAD13846E7
:10D570007F1EFFB20028ABD10448C16800988142E9
:10D5800001D00120F8BD0020F8BD0000F0200020EF
:10D59000FFFF7F000023A6B05A4A05211846FFF777
:10D5A00007F8002801D0FEF7B7FF574A04AB07CAB7
:10D5B00007C3FF21013155480090401801910391A4
:10D5C00002900323524A694604A8FFF7BBF80028DB
:10D5D00001D0FEF7A1FF4F4A4F490320FFF758FD46
:10D5E000002801D0FEF798FF69460020FFF7BCFC39
:10D5F000002801D0FEF790FF6846007802287FD00F
:10D60000002168460171FFF777FC012001461031C7
:10D61000684601720B2241A102A87CDF002801D0DC
:10D62000FEF77AFF002400941021684601940180DF
:10D630003C214180FF2184809131C1807ADF002824
:10D6400001D0FEF769FF3848009069463748FFF778
:10D65000C9FB002801D0FEF75FFF382101A8FDF7C4
:10D6600094FD02216846017184710521C171382140
:10D670000FA8FDF78AFD012510A885812C4814907C
:10D6800024211DA8FDF781FD20A8057040202190D0
:10D69000B4202290274B1DAA0FA9009401A8FFF7E0
:10D6A000F1F8002801D0FEF737FF1C216846FDF78E
:10D6B0006CFD0520C00301900F200004029000942F
:10D6C000032168460173C48104741B4805901B48FC
:10D6D00006906846FFF7D0FA002801D0FEF71CFF3D
:10D6E0001748446017A0FEF761F90320FFF7CEF951
:10D6F000002801D0FEF710FF00E001E000F082FCFE
:10D7000001217EE7902300209CE60100902100206B
:10D7100089E2010051D00100CD0C00005155494B68
:10D720002053656E736F7200C7DB0100582500201F
:10D7300084200020EDDB010071DC0100D9D1010063
:10D7400000C500400D0A504D4C2053746172742185
:10D750000D0A000070B5144682880E4605462088E2
:10D76000111D4118921C994201D8FE2A01D90C20A2
:10D7700070BD521C32542088FF21401C80B2208092
:10D7800031542088401C80B220808119288800F004
:10D7900097FE2188401880B22080AA88002A09D0EC
:10D7A000A968002908D08019FDF7D6FC2088A9882F
:10D7B00040182080002070BD072070BDF8B50F46CE
:10D7C000017814460546012902D16878002806D060
:10D7D0002088821C9A422DD8012902D006E0072019
:10D7E000F8BD69784118891C994223D8181A801EFF
:10D7F00086B2684606802188B81C081869467DDF15
:10D800000028EDD12878022805D169460988B1425F
:10D8100001D809210AE00821012805D16878B04221
:10D8200002D86A46108001E0684606806846008893
:10D83000FE2801D90C20F8BD2288401CB85420884D
:10D84000401C80B22080395420886946401C2080CA
:10D850000988401820800020F8BD00008207D30E00
:10D86000FF229A408907090E10B5994000280BDA6B
:10D8700003071B0F083B9C080C4BA400E318DC6952
:10D8800094430C43DC6107E08408094BA400E418CE
:10D89000236893430B432360C106C90E01208840CF
:10D8A000044908600449086010BD000000ED00E074
:10D8B00000E400E080E200E000E100E0F3B52A4C83
:10D8C0000746E07E81B0002801D00820FEBD002F71
:10D8D00000D1264F012638783146814024488160A6
:10D8E000386800F03EF90021786800F031F9214DE8
:10D8F000B8696862787D397D0843E86603CFE860DF
:10D900006961387B083F01280FD10021B86800F019
:10D910001FF9387B3146814015488160F86800F076
:10D9200020F9F968B868A9602861029860603969CF
:10D93000216000280ED0FF230F481D33397F0022BD
:10D94000C250FF234533C2500D4A0C48506002209C
:10D95000FFF784FF042028600020E0752076A07582
:10D96000E676A076FEBD00001C270020DCE6010064
:10D97000000500500025004000200040800002000B
:10D9800000230040F8B5104B81245E680022A400FB
:10D990000E4D002E00D0AC60DF7D002F0BD01A7E24
:10D9A000002A04D0002E00D06C601120F8BD186150
:10D9B0000122197604E0D9750024D8605C761C76C3
:10D9C00000F012F8F8BD00001C27002000230040E2
:10D9D00010B5044CA07E002803D100F015FA0120F8
:10D9E000A07610BD1C270020F8B5234DA87E10435B
:10D9F00001D100F009FA6868204C002805D0812088
:10DA00001F49800048600020F8BDFF2045300021FC
:10DA10002150FF212531204600F0C8F80546FF219E
:10DA20000931204600F0C2F80746FF214531204663
:10DA300000F0BCF80646394631432943E9D0284670
:10DA4000304306D100F066F90B48C17D407E81422B
:10DA5000DFD800210848002DC17501D00320F8BD92
:10DA6000002E01D00F20F8BD817E0120002901D0B9
:10DA70002060C8E76060C6E71C2700200020004047
:10DA80000023004010B5034600F048F8002801D0FC
:10DA9000112010BD034A002091759360908200F020
:10DAA00003F810BD1C270020F8B50026194FFF25EC
:10DAB0001D357E510120B86000F080FB164C616876
:10DAC000002910D022E0FF2701372946114800F035
:10DAD0006DF8002802D1A08AB842F6D1A08AB842D7
:10DAE00001D000F06BFBA08AA17D8842EBD3A18A14
:10DAF000C81FF9380CD0074F2946384600F056F8B1
:10DB00000028F9D00120F8600020A0753046F8BD4B
:10DB10000F26F9E7002000401C2700200248807DE6
:10DB2000002800D0012070471C27002030B552008B
:10DB30000A439900039C0A432102049D0A432904D5
:10DB40000A43024980004018026030BD00070050BF
:10DB50001CB500220B46009211460192FFF7E6FF2A
:10DB60001CBD1CB5002100910B46012201911146FC
:10DB7000FFF7DCFF1CBD0000820006481018026899
:10DB800003231B049A430260026809040A430260EB
:10DB90007047000000070050034940180068012842
:10DBA00000D000207047000000600040405800286E
:10DBB00000D00120704703221202801840680840FC
:10DBC00000D00120704770B516460D46002405E0D0
:10DBD000285DFEF707FE0028FAD1641CB442F7D393
:10DBE0000A20FEF7FFFD0028FAD170BD10B500280D
:10DBF00009D0032806D10220FFF748FA002801D0F7
:10DC0000FEF78AFC10BD00F0A2F910BD70B50188C6
:10DC1000164D0446102910D0112917D028464088E7
:10DC200013291ED0522907D100231A461946A9DF0D
:10DC3000002801D0FEF770FC70BD0720FFF726FA20
:10DC4000002801D0FEF768FCA08808E00020FFF75C
:10DC50001DFA002801D0FEF75FFC0020C043688059
:10DC600070BD00231A4685217FDFE1E78020002078
:10DC700010B50078002807D104483B21408876DFA2
:10DC8000002801D0FEF748FC10BD000080200020D5
:10DC90000021425C002A01D001207047491C06295E
:10DCA000F7D300207047000007490979490701D4DC
:10DCB00008207047002804D00449497801600020FA
:10DCC00070470E2070470000CC200020382700202D
:10DCD00070B501240B49600408600B49401088604E
:10DCE000094940398860094D6C602F20FDF7F2F931
:10DCF000AC60074D00242F202C61FDF7EBF9EC7090
:10DD000070BD000080E100E04013014000100140C0
:10DD1000F020002030B50A48FF21C57D0022094CC3
:10DD20000931094B002D625007D09969437EC268C2
:10DD3000D154417E491C417630BD986930BD000008
:10DD40001C270020002000400025004070B5002462
:10DD50000546601C90B00007000F08A91030089419
:10DD60000870601C0007000F103048708878F92692
:10DD70003040801C88701C2101A8FDF706FA694616
:10DD800008791021084369460871029408A8049490
:10DD9000059407940690287808A98871032069469D
:10DDA000888411200094087048708878F7213040EA
:10DDB000801C0840EF2108400126304369468870E6
:10DDC00014210AA8FDF7E1F909A80A9068460B900A
:10DDD00069460E8614204C8688862B4668880C334C
:10DDE0000AAA01A9A2DF10B070BD00001FB501236F
:10DDF0006A46137010720348019106C8684690473E
:10DE00001FBD00001C270020FF22054825320021ED
:10DE10008150FF22093281500121016070470000CA
:10DE20000020004008B502490020009108BD000014
:10DE30008020002010B50121202805DA1A4A8140EF
:10DE4000114201D1194810BD8107C90E002808DA16
:10DE50000207120F083A9208154B9200D218D269A5
:10DE600004E08208134B9200D2181268CA401106CF
:10DE7000890F042911D200290FD002290DD00E4993
:10DE80004C68C306DB0E01229A40002C08D04009E2
:10DE900080000B5813430B5004E00448401C10BD95
:10DEA00006480260002010BDFC06FFBC01200000F7
:10DEB00000ED00E000E400E02821002000E100E0A7
:10DEC000FFB50746806A81B0144600283DD0002582
:10DED00038462030009033E00C20B96A68430E18B1
:10DEE000B088801CFE2802D90C2005B0F0BD228825
:10DEF0000299401C885420881622401C80B2208041
:10DF000002990A542088401C80B22080029941184E
:10DF1000308800F0D5FA2188401880B22080B2887D
:10DF2000002A0AD0B16800290FD0029BC018FDF763
:10DF300013F92088B188401820806D1C0098EDB23C
:10DF4000007BA842C8D80020CFE70720CDE710B556
:10DF50000020FFF79BF8002801D0FEF7DDFAFFF75D
:10DF600069F8002801D0FEF7D7FA3CDF002801D07D
:10DF7000FEF7D2FA10BD0000002803D00249C860A5
:10DF8000002070470E207047142100201CB5034963
:10DF900001910091694660DF1CBD000080200020D7
:10DFA00070B50E460546144614211046FDF7EDF8EF
:10DFB0000120002120802161217326726572002DCD
:10DFC00000D0A072002070BD10B5FEF797FA10BD0A
:10DFD00070B5002901D08C0701D0072070BD074C17
:10DFE0000125A16062800649636010DF0028F5D139
:10DFF00025701620FFF71EFF70BD000014210020C1
:10E00000C9DF010008B50D4D0D4C0E4E0027012152
:10E01000316028680028FCD02F60A0688005A068C7
:10E0200001D5094A1043C217920F101880100090B2
:10E03000716006A00099FDF7B9FCE8E700C1004057
:10E0400000C5004000C0004000FCFFFF4163747544
:10E05000616C2074656D70657261747572653A20CB
:10E0600025640A0D00000000FEB51F4C002527693D
:10E07000E06802906846FFF7E7F80190FFF7C2F901
:10E0800006460198002822D000230098E16817E096
:10E090000E680A46864202D9301A086012E0801BD8
:10E0A000F31800261660D668D169B446002E07D052
:10E0B000FE183602360A566066469660D5611546E9
:10E0C0000029E5D12846E160FFF7FAF906E0284685
:10E0D000FFF7F6F9002801D1002E02D00298FEF7D2
:10E0E000E3FF00202071FEBDF02000200120024946
:10E0F000000508607047000000E200E010B50E4B1C
:10E10000D968002906D002680C68A24204D8A21A75
:10E110000A60C161D86010BD0B4604E00B46C969B6
:10E12000121B002904D00C689442F7D3A41A0C6087
:10E130000260C161D86110BDF0200020F8B51D4D0E
:10E14000EC68002C34D01C48002740682969401A2C
:10E150000602360A2068B04218D8361AC719224675
:10E16000107CE46900280FD0002010746B69002B2C
:10E1700007D0916950699847002805D0FEF7CCF97F
:10E1800002E0516990698847002CE3D16978A8784A
:10E19000814206D1401CC0B2A870022801D10020E3
:10E1A000A87004490006800D18310F50FFF79EFF3C
:10E1B000F8BD0000F020002000150140FF210748B5
:10E1C0001D31002242500648828A8168895C828A19
:10E1D000521C82820348C161704700000020004049
:10E1E0001C2700200025004070B58EB005461C217C
:10E1F0006846FCF7CAFF694608780C21084369465F
:10E2000008700024019403940494059406942878DB
:10E2100008A98870022069460884601C0007000F66
:10E2200010300794087711204877887FF92108403B
:10E23000F721801C0840EF21084001263043694641
:10E240008877142109A8FCF7A0FF08A8099007A85F
:10E250000A9069468E851420CC85088668882B1D17
:10E2600009AAA2DF0EB070BD1FB500216A46117069
:10E270001072044882680192817506C8684690470A
:10E280001FBD00001C27002070B50178002907D0B1
:10E29000012901D0022902D14068FEF73DF970BD85
:10E2A0000F4C0E4D20782818FEF732FA2078401CCB
:10E2B000C2B2A81822702038C07F0A2801D0142AC0
:10E2C000EDD306490748FEF7EDFD082803D00028E6
:10E2D00001D0FEF721F90020207070BD7C210020C4
:10E2E00080200020582500207CB50178284D012988
:10E2F0000AD002292FD000292CD129462548FEF723
:10E3000017F9002833D036E04068017821481038EA
:10E31000FEF72BF91F4C103C002805D001216A465E
:10E3200011700190684608E0A068E168081A0128A9
:10E3300005D1002069460870684669688847A0686A
:10E34000E168081AA188884204D811480121401CBC
:10E35000FFF718FB7CBD02216A461170C06801906E
:10E360000B480121401CFFF70DFB68460CE0012122
:10E370000748FFF787FB07488168C0688842E9D1F2
:10E380000320694608706846696888477CBD0000BC
:10E39000C4200020C4260020F0B5454D012185B0E1
:10E3A00049022846FFF707FC01270026414C0028B8
:10E3B00024D0FF2125312846FFF7F8FB00281DD087
:10E3C000FF2025302E5081203B4980008860A07EB0
:10E3D000002800D16F600221684601703749086843
:10E3E00008600390E17D68460172E0680190E6757F
:10E3F000267606CC6846083C90472BE00421284648
:10E40000FFF7D9FB002825D0FF2109312846FFF767
:10E41000CDFB00281ED0FFF77DFCE07D617E8842A9
:10E4200018D1207E002808D0627EE168E07520695E
:10E43000E0602676667610460AE0A07E002800D1CD
:10E440006F6081201C4980008860E675607EE1680D
:10E45000FFF7CCFCFF211D312846FFF7A7FB002862
:10E460000DD0A18AA07D814202D2FFF7A7FE06E06F
:10E47000FF211D316E50002801D0FFF7F5FEFF216E
:10E4800045312846FFF792FB00280ED0FF2045308B
:10E490002E50A07E002800D02F60E07D002804D000
:10E4A000E675607EE168FFF7A1FC05B0F0BD0000F5
:10E4B000002000401C270020002300408024004052
:10E4C0000870000A487002207047000038B51549EE
:10E4D000154A488890420FD04A78144C521CD2B248
:10E4E0004A70237B934208D3091D75DF002803D0AF
:10E4F000A169002900D0884738BD00254D70217CD6
:10E50000002907D03B2176DF002803D0A16900292C
:10E5100000D0884761690029EED0684605708847B9
:10E5200038BD0000B0200020FFFF0000982600202A
:10E53000EFF30580C005C00D1AD0103840B2002896
:10E5400008DA0107090F083989080C4A8900891877
:10E55000C96904E081080A4A8900891809688007A6
:10E56000C00EC1400806800F012803D0032803D045
:10E5700002207047002070470120704700ED00E046
:10E5800000E400E042788378521CD2B2934200D17A
:10E5900000220378934201D1002070470A7041683D
:10E5A00040781822504308187047FFB583B01646CC
:10E5B0000C9D0D9C1F46022200950194039800F0CB
:10E5C0000CF8002807D13B461022314600950194F3
:10E5D000039800F002F807B0F0BDFFB583B007461E
:10E5E00000200C9C8646268805463AE07868A900FB
:10E5F00042181188684681805188C180002269468E
:10E6000001A865DF002839D1684601780598814264
:10E6100026D17046002801D0002200E00222208886
:10E62000891842180D998A4227D8714600290AD1C3
:10E63000401C80B22080069A049911542088401C06
:10E64000208001208646218806980A18694601A87C
:10E6500065DF002812D1694620880978401820809B
:10E660006D1C3888A842C1DC704600280AD020887A
:10E67000801B401E80B2FF2802D90C2007B0F0BDDD
:10E68000069988550020F9E70179002902D1007B1D
:10E69000002800D00120704701000007030100029C
:10E6A0000100000000E0D701782600209ECADC248B
:10E6B0000EE5A9E093F3A3B50000406E0900000049
:10E6C0000B0000000A00000008000000000000002D
:10E6D0000000000000E0D701030000000900000076
:10E6E0000B0000000A00000008000000000000000D
:10E6F0000000000000E0D701030000001CE701005B
:10E7000080200020B4000000FAB90100D0E7010029
:10E7100034210020340F00000ABA01000000FFFF7E
:10E7200001000200000000000000000000000000E6
:10E7300000000000FFFF00000000000000000000DB
:10E7400000000000000000000000000000000000C9
:10E7500000000000000000000000000000000000B9
:10E7600000000000000000000000000000000000A9
:10E770000000000000000000000000000000000099
:10E780000000000000000000000000000000000089
:10E790000000000000000000000000000000000079
:10E7A0000000000000000000000000000000000069
:10E7B0000000000000000000000000000000000059
:10E7C0000000000000000000000000000024F40031
:040000050001B0C185
:00000001FF
